:10000000C0170020C51A00008D430000F51A00003B
:10001000F51A0000F51A0000F51A000000000000B3
:10002000000000000000000000000000211A000095
:10003000F51A000000000000CD1900006743000021
:10004000851A0000851A0000851A0000851A000034
:10005000851A0000851A0000851A0000851A000024
:10006000851A0000851A0000851A0000851A000014
:10007000851A0000851A0000851A0000851A000004
:10008000851A0000851A0000851A0000851A0000F4
:10009000851A0000851A0000851A0000851A0000E4
:1000A000851A0000851A0000851A0000851A0000D4
:1000B000851A0000851A0000851A0000851A0000C4
:1000C000851A0000851A0000851A0000851A0000B4
:0C00D000851A0000851A0000851A000047
:1000DC0080F0004002E000BF81F0004142001FBFF1
:1000EC005FEA410392EA030F7FEA226C7FEA236CFA
:1000FC006AD04FEA1262D2EB1363C1BFD2184140EF
:10010C0048404140B8BF5B42192B88BF704710F084
:10011C00004F40F4000020F07F4018BF404211F027
:10012C00004F41F4000121F07F4118BF494292EA8F
:10013C00030F3FD0A2F1010241FA03FC10EB0C00BB
:10014C00C3F1200301FA03F100F0004302D5494248
:10015C0060EB4000B0F5000F13D3B0F1807F06D3F5
:10016C0040084FEA310102F10102FE2A51D2B1F1ED
:10017C00004F40EBC25008BF20F0010040EA0300E2
:10018C007047490040EB0000013A28BFB0F5000F62
:10019C00EDD2B0FA80FCACF1080CB2EB0C0200FA18
:1001AC000CF0AABF00EBC25052421843BCBFD04067
:1001BC001843704792F0000F81F4000106BF80F4E1
:1001CC0000000132013BB5E74FEA41037FEA226CA4
:1001DC0018BF7FEA236C21D092EA030F04D092F06F
:1001EC00000F08BF0846704790EA010F1CBF0020A3
:1001FC00704712F07F4F04D1400028BF40F0004000
:10020C00704712F100723CBF00F50000704700F01F
:10021C00004343F0FE4040F4000070477FEA226246
:10022C0016BF08467FEA23630146420206BF5FEA17
:10023C00412390EA010F40F4800070474FF0000317
:10024C0004E000BF10F0004348BF40425FEA000CDE
:10025C0008BF704743F0964301464FF000001CE086
:10026C0050EA010208BF70474FF000030AE000BFDC
:10027C0050EA010208BF704711F0004302D540421A
:10028C0061EB41015FEA010C02BF8446014600208C
:10029C0043F0B64308BFA3F18053A3F50003BCFAA7
:1002AC008CF2083AA3EBC25310DB01FA02FC634454
:1002BC0000FA02FCC2F12002BCF1004F20FA02F25B
:1002CC0043EB020008BF20F00100704702F120024E
:1002DC0001FA02FCC2F1200250EA4C0021FA02F2AF
:1002EC0043EB020008BF20EADC7070474FF0FF0CB4
:1002FC001CEAD0521EBF1CEAD15392EA0C0F93EAAF
:10030C000C0F6FD01A4480EA010C400218BF5FEA50
:10031C0041211ED04FF0006343EA501043EA5111C3
:10032C00A0FB01310CF00040B1F5000F3EBF4900BD
:10033C0041EAD3715B0040EA010062F17F02FD2AC1
:10034C001DD8B3F1004F40EBC25008BF20F00100A4
:10035C00704790F0000F0CF0004C08BF49024CEABB
:10036C00502040EA51207F3AC2BFD2F1FF0340EA4D
:10037C00C250704740F400004FF00003013A5DDCBE
:10038C0012F1190FDCBF00F000407047C2F10002FF
:10039C00410021FA02F1C2F1200200FA02FC5FEAEC
:1003AC00310040F1000053EA4C0308BF20EADC7036
:1003BC00704792F0000F00F0004C02BF400010F4A8
:1003CC00000F013AF9D040EA0C0093F0000F01F055
:1003DC00004C02BF490011F4000F013BF9D041EA77
:1003EC000C018FE70CEAD15392EA0C0F18BF93EA79
:1003FC000C0F0AD030F0004C18BF31F0004CD8D1A3
:10040C0080EA010000F00040704790F0000F17BF29
:10041C0090F0004F084691F0000F91F0004F14D06F
:10042C0092EA0C0F01D142020FD193EA0C0F03D1C7
:10043C004B0218BF084608D180EA010000F00040CA
:10044C0040F0FE4040F40000704740F0FE4040F4A5
:10045C00400070474FF0FF0C1CEAD0521EBF1CEA44
:10046C00D15392EA0C0F93EA0C0F69D0A2EB030262
:10047C0080EA010C49024FEA402037D04FF08053FC
:10048C0043EA111143EA10130CF000408B4238BFC1
:10049C005B0042F17D024FF4000C8B4224BF5B1ACF
:1004AC0040EA0C00B3EB510F24BFA3EB510340EA1D
:1004BC005C00B3EB910F24BFA3EB910340EA9C00CB
:1004CC00B3EBD10F24BFA3EBD10340EADC001B013B
:1004DC0018BF5FEA1C1CE0D1FD2A3FF650AF8B42DF
:1004EC0040EBC25008BF20F0010070470CF0004CEC
:1004FC004CEA50207F32C2BFD2F1FF0340EAC25017
:10050C00704740F400004FF00003013A37E792F0D7
:10051C00000F00F0004C02BF400010F4000F013A35
:10052C00F9D040EA0C0093F0000F01F0004C02BF30
:10053C00490011F4000F013BF9D041EA0C0195E799
:10054C000CEAD15392EA0C0F08D142027FF47DAF32
:10055C0093EA0C0F7FF470AF084676E793EA0C0F22
:10056C0004D14B023FF44CAF08466EE730F0004C20
:10057C0018BF31F0004CCAD130F000427FF45CAFB0
:10058C0031F000437FF43CAF5FE700BF4FEA40021D
:10059C00B2F1FE4F0FD34FF09E03B3EB12620DD9A5
:1005AC004FEA002343F0004310F0004F23FA02F00F
:1005BC0018BF404270474FF00000704712F1610FB6
:1005CC0001D1420205D110F0004008BF6FF000408D
:1005DC0070474FF00000704753B94AB9002908BF63
:1005EC0000281CBF4FF0FF314FF0FF3000F06CB90A
:1005FC00ADF1080C6DE904CE00F006F8DDF804E06E
:10060C00DDE9022304B070472DE9F047089E0D4642
:10061C0004468E46002B40F082808A42174646D90B
:10062C00B2FA82F24AB1C2F1200105FA02F320FAC1
:10063C0001F1974041EA030E94404FEA1748230C0E
:10064C00BEFBF8FCB9B208FB1CEE43EA0E430CFBF4
:10065C0001F098420AD9FB180CF1FF3580F0168195
:10066C00984240F21381ACF1020C3B441B1AA4B229
:10067C00B3FBF8F008FB103344EA034400FB01F130
:10068C00A14209D93C1900F1FF3380F00181A1424C
:10069C0040F2FE8002383C44641A40EA0C400021CF
:1006AC001EB1D4400023C6E90043BDE8F08702B96F
:1006BC00FFDEB2FA82F2002A4FD1CB1B4FEA174E63
:1006CC001FFA87F80121B3FBFEFC250C0EFB1C3333
:1006DC0045EA034508FB0CF3AB4207D97D190CF135
:1006EC00FF3002D2AB4200F2E7808446ED1AA3B28F
:1006FC00B5FBFEF00EFB105543EA054408FB00F871
:10070C00A04507D93C1900F1FF3302D2A04500F2F5
:10071C00D7801846A4EB080440EA0C40C0E78B4293
:10072C0008D9002E00F0AF800021C6E9000508466C
:10073C00BDE8F087B3FA83F100294BD1AB4202D369
:10074C00824200F2B780841A65EB030301209E46B7
:10075C00002EAAD0C6E9004EA7E7C2F1200C01FA80
:10076C0002F3974020FA0CF04FEA174E21FA0CFCDA
:10077C001843BCFBFEF1050C0EFB11CC1FFA87F8DD
:10078C0045EA0C4501FB08F3AB4204FA02F409D923
:10079C007D1901F1FF3C80F08B80AB4240F28880E8
:1007AC0002393D44EB1A85B2B3FBFEF00EFB10335D
:1007BC0045EA034500FB08F3AB4207D97D1900F16C
:1007CC00FF3C71D2AB426FD902383D44EB1A40EA80
:1007DC00014178E7C1F1200C8B4022FA0CF71F4342
:1007EC0020FA0CF405FA01F34FEA174E25FA0CF532
:1007FC001C43230CB5FBFEF91FFA87F80EFB1955A9
:10080C0043EA054509FB08FAAA4502FA01F200FA87
:10081C0001F308D97D1909F1FF3047D2AA4545D912
:10082C00A9F102093D44A5EB0A05A4B2B5FBFEF003
:10083C000EFB105544EA054400FB08F8A04507D907
:10084C003C1900F1FF352DD2A0452BD902383C4480
:10085C0040EA0940A4EB0804A0FB02894C45C646BB
:10086C004D4619D316D05EB1B3EB0E0264EB050402
:10087C0004FA0CFCCA404CEA0202CC40C6E9002443
:10088C000021BDE8F087314630460EE7AC46EDE678
:10089C00184601E74345E6D2B8EB020E69EB0705B3
:1008AC000138E0E72846D3E760468FE78146BAE790
:1008BC00614677E708464BE7ACF1020C3D4415E77F
:1008CC0002383C4426E700BF704700BF2DE9F043D7
:1008DC00324887B003F0B0FA314803F0ADFA314832
:1008EC0003F0AAFA304803F0A7FA3048304D02F072
:1008FC0029FB286018B92F4803F09EFAFEE783689D
:10090C002D491B689847014618B12C4803F094FAFE
:10091C00FEE72B4B2B4EDFF8C080DFF8C090012296
:10092C00DA601422002101A803F079FD8023CDE9BF
:10093C0002362868022304930A238DF8143030B948
:10094C004FF0FF342048214603F076FA1FE083680D
:10095C0001A95B689847014604461C4803F06CFAF1
:10096C00B6F900701A48394603F066FA3846FFF7B4
:10097C0069FC4146FFF76EFD4946FFF7B7FCFFF7F0
:10098C0005FE0146134801F0BDFA002CDAD1002116
:10099C004FF4804002F02AFFC3E700BF604B000019
:1009AC00834B0000A94B0000C34B0000F24B00002E
:1009BC0010020020F84B0000584B0000194C0000AE
:1009CC00007000409C0300206F4C0000314C000074
:1009DC00434C0000564C000000C07F4400006145B1
:1009EC000B6801330B60014B1B681847900000200B
:1009FC00014B1860704700BF9000002007B50B46F4
:100A0C00002102460191034801A900F043FA03B00A
:100A1C005DF804FBED0900002DE9F84FB0F81890D3
:100A2C0019F00808044693460DD001290CBF49F073
:100A3C00100949F02009A0F818908BF31188BFF326
:100A4C006F8FBDE8F88F09F00709022907D12046FE
:100A5C0003F0FFF90028F0D00128238B50D16769EF
:100A6C00218B002F15DA256821F00701C4E90088D5
:100A7C0041F0010121830026218B01F0070ACA45B0
:100A8C0002D0A368002B5CD10DB9002E74D00023CA
:100A9C0058E001F007035A1F012A20D821F0070162
:100AAC00062B256889B2C4E900880CD1002D2B4691
:100ABC0038BF00232BB1628B1B6801326283002B81
:100ACC00F8D141F002012183204603F0C2F9064619
:100ADC000028D1D0238B43F020032383CBE7042BB6
:100AEC000CD121F0070189B22183204603F0B1F922
:100AFC0005460028BFD041F0200121830025BAE72C
:100B0C00032809D1226923F00703166843F0060372
:100B1C00238300252F46AFE7042806D1226923F052
:100B2C000703566843F00403F2E7052806D122694F
:100B3C0023F00703966843F00503E9E700252E46EA
:100B4C00E8E7012341F0080121838BF31188BFF3FF
:100B5C006F8F03BB002D33D116B121492046B0470E
:100B6C004FF02003EFF3118B83F31188BFF36F8FDA
:100B7C00238B23F008032383238BDA0628D523F059
:100B8C00100323830121B4F8189009F007090029F8
:100B9C007FF45BAF51E7A1680029DBD00B68D1F87B
:100BAC0004B0002B38BF0023994652463B462046E2
:100BBC00D847B9F1000FCDD0D9F800304946EEE74F
:100BCC0029463B46524620462D6803F05EF9C1E7A4
:100BDC0013F020011EBF23F0200323830221D2E750
:100BEC00C33E0000F0B50022C0E9002282604A78C2
:100BFC00252A034633D001310C4611F8012B2B2A40
:100C0C003DD02FD8202A3ED0232A40D01A7802F08B
:100C1C004401442902D16FF386121A7022782A2AD1
:100C2C004CD11A8842F4C072601C1A8002782E2AA9
:100C3C004FD142782A2A45D00130054600220A2796
:100C4C00014611F8014BA4F13006092E53D9A842E4
:100C5C001FBF59789A6041F00201597039E0881C25
:100C6C00DA70F0BD2D2A05D0302ACFD11A7842F097
:100C7C00400202E01A7842F004021A70BCE71A78BB
:100C8C0042F00802F9E71A7842F01002F5E71A78F8
:100C9C0042F02002F1E707FB0252303A08460146C7
:100CAC0011F8015BA5F13006092EF4D984421FBF5F
:100CBC0019785A6041F080011970B7E7204600227C
:100CCC000A27ECE75A7822F0060242F006025A7024
:100CDC000230014611F8014B6C2C3CD010D8682C1A
:100CEC0015D06A2C3FD04C2C42D05A786FF3C602E8
:100CFC005A70014614E007FB0242303A08469FE75F
:100D0C00742C5A7832D07A2CEFD106201FE042781E
:100D1C00682A5A781AD1012161F3C6025A70811CD3
:100D2C00084610F8014BDC70782C00F2AC80572C84
:100D3C0029D8412C03D0453C022C00F2A4809A788F
:100D4C00042161F302029A70012278E0022060F320
:100D5C00C6025A70E4E742786C2A5A7801D1042111
:100D6C00DAE70320F3E75A780520F0E70720EEE7EF
:100D7C001A8822F4F04222F0020242F4804242F03D
:100D8C0002021A80CCE7A4F15802202A7BD801A1D8
:100D9C0051F822F05B0E0000930E0000930E000041
:100DAC00930E0000930E0000930E0000930E0000B3
:100DBC00930E0000930E00004B0D0000930E0000EC
:100DCC005B0E0000250E00004B0D00004B0D0000CB
:100DDC004B0D0000930E0000250E0000930E00003A
:100DEC00930E0000930E0000930E0000610E0000A5
:100DFC005B0E00007B0E0000930E0000930E0000B3
:100E0C007B0E0000930E00005B0E0000930E0000A2
:100E1C00930E00005B0E00009A78012161F3020230
:100E2C009A705A7802F07802402A02BF197841F081
:100E3C0001011970632C2AD1003A18BF01221978CC
:100E4C00C1F34004224362F34101197009E79A7817
:100E5C000221E3E79A78032161F302029A705A782F
:100E6C0002F07802A2F140014A424A41E7E79A783F
:100E7C00032161F302029A705A7812F0780F14BFB2
:100E8C0001220022DBE71A7842F001021A700022DC
:100E9C00D5E700BF2DE9F04F80468FB089469246CA
:100EAC001C4600259AF8000008B928460BE12528B5
:100EBC0009D04946C0470028C0F205810AF1010358
:100ECC000293013559E0514605A8FFF78BFE9DF8BA
:100EDC0015300290D9071AD554F8047B002F06DA86
:100EEC009DF8142042F004028DF814207F425A071A
:100EFC0015D554F804BBBBF1000F14DA9DF815306E
:100F0C006FF341038DF815304FF0FF3B0BE09DF96B
:100F1C001420002AB4BF069F4FF0FF37E7E79B076A
:100F2C00F2D5DDF81CB09DF816309DF815C003F015
:100F3C0007030021012BCDE90611CCF3C30C8E461F
:100F4C0030D1ACF10303042B1AD8DFE803F0033BD8
:100F5C003B19190054F8041BCB179E469DF814300E
:100F6C0013F0030650D0029B52464946404603F00C
:100F7C004CF90028C0F2A7800544DDF808A091E7E1
:100F8C0054F8041BBCF1010F4FEAE1739E4602D1E9
:100F9C0001F0FF0113E0BCF1020FDFD10AB2D3174D
:100FAC001146DAE7022B22D1ACF10303042B12D841
:100FBC00DFE803F003080811110054F8041B4FF08C
:100FCC00000ECBE7E31D23F007031C46D3F804E027
:100FDC0054F8081BC2E7BCF1010F54F8041B4FF086
:100FEC00000ED5D0BCF1020FB8D189B2E7E7042BC3
:100FFC0005D1073424F00704F4E80223D0E7032BCF
:10100C0008BF54F8041BA9E79DF817007828B4D83A
:10101C00622821D8252851D05828AED10DF136039D
:10102C000093084608AB05AA714603F0A3F8824664
:10103C00BBF1000F0DF136010CDB9DF81420A1EB78
:10104C000A036FF386129B458DF8142002D9ABEB83
:10105C00030306938B4648E0633815288DD801A20C
:10106C0052F820F0FF1000005D110000870F000007
:10107C00870F0000870F0000870F00005D11000034
:10108C00870F0000870F0000870F0000870F0000FC
:10109C00B71100008511000089110000870F0000B6
:1010AC00870F0000D9100000870F00008511000089
:1010BC00870F0000870F0000851100004946C047CC
:1010CC000028BFF6FEAE0FB0BDE8F08F08468A468A
:1010DC00039103F066F9BBF1000F039902DB58454D
:1010EC0028BF584601EB000B0026BAF1000F07D1C0
:1010FC0043E78DF8201000260DF1210B0DF1200A8D
:10110C00ABEB0A0306B101339DF81620D00667D568
:10111C0002335206069948BF079A0B4448BF9B18E6
:10112C00002F70DD9DF81420FF1AC2F38003039387
:10113C00530768D4500640F1A3803EB1494630466F
:10114C00C0470028BFDB039B01351E46302398E0C7
:10115C001E070FD413F0100618BF202600297EF1AD
:10116C000000BFF65BAF4A426EEB4E0311469E4643
:10117C002D2653E72B26F1E700264FE751B30DF14F
:10118C0036030093084608AB05AA002102F0F2FFD3
:10119C00BDF8163003F0EF0343F4F04343F01003B3
:1011AC008246ADF81630002642E7BCF1070F3FF639
:1011BC00E4AEDFE80CF00D04060D08080D0D0D7003
:1011CC00DBE60D80D9E62A46EB17C1E90023D4E60D
:1011DC000D60D2E6DFF8C0B00E46ABF1050A8FE722
:1011EC00110748BF013394E7184649460393C0479B
:1011FC000028039BFFF667AF002FA5EB070107F153
:10120C00FF37F1DC0D4636B149463046C047002861
:10121C00FFF659AF01359DF81630D90601D41A07DF
:10122C0006D549463020C0470028FFF64CAF0135A3
:10123C009DF81630DB0607D59DF817004946C047C8
:10124C000028FFF640AF0135069E2E44731B002B81
:10125C0019DC5B4652464946404602F0D6FF002850
:10126C00FFF631AF05442F447B1B002B7FF785AE77
:10127C0049462020C0470028FFF625AF0135F3E78B
:10128C0020233D44B8E749463020C0470028FFF6EC
:10129C001AAF0135DAE700BF8F4C000010B50748D4
:1012AC00074C01F04FFE074B1860204600F018FE6B
:1012BC002046FFF79DFB002010BD00BF904C0000A6
:1012CC00D5120000140200200A2838B5074D044638
:1012DC0004D1286883680D215B6898472868836867
:1012EC00E1B25B689847204638BD00BF140200206D
:1012FC000E4A70B5841AA3100D4C5C430546E4B23B
:10130C000C2000FB04200E464021084402F09DFFF7
:10131C00011E05DB074B03EBC404636898470021EF
:10132C0028463346BDE87040184700BF280200200D
:10133C00B76DDBB6AC4A00002DE9F041104E841BB2
:10134C00A310104C5C43E4B20C256543804605F1B8
:10135C0040000F463044402102F090FF011E09DB93
:10136C00094A7319C3E90E27084B53F83430BDE80A
:10137C00F041184740463B46BDE8F041184700BFD6
:10138C0028020020B76DDBB6EB420000AC4A00002F
:10139C00002270B501210446104600F087FA0020A7
:1013AC0000F066FA0F4801F085FC0F4B984215D1FE
:1013BC0003F02EF9E6680D49304602F099FD00283D
:1013CC000BDB01253564E468084904F11C0002F0CC
:1013DC008FFD002801DBE564002070BD6FF0040078
:1013EC00FBE700BF311400000000AD0BBC4A00004D
:1013FC0001460C2309484B4370B5C418D4E90E566A
:10140C0000224033A263184402F056FF2DB132463D
:10141C002B460348BDE87040184770BD28020020D9
:10142C00B400002010B1012804D07047034B1B6C92
:10143C005B0701D1FFF7DCBF704700BF280200201B
:10144C0008B54FF02003EFF3118183F31188BFF33C
:10145C006F8F124A136843F0020013F001031060FF
:10146C000CD04FF08042D2F80C34D2F80C2413F08C
:10147C00010303D00A4802F01FFF012381F31188F6
:10148C00BFF36F8F23B1BDE808400020FFF7B0BF5A
:10149C00BDE80840012001F01DBC00BF780200200F
:1014AC006802002010B5074C23782BB94FF4A570B7
:1014BC0003F0A7F901232370BDE81040002001F0D0
:1014CC0009BC00BF9E030020094BBFF35B8F53E8A0
:1014DC00002F22F0020143E800100028F7D1BFF3DF
:1014EC005B8FD30702D4012001F040BC704700BFD2
:1014FC00780200201FB500220123CDE90223094AFE
:10150C00CDF800D06B46CDF804D002F00BFF0028CC
:10151C0005DB4FF480420023684602F0ADF905B0BC
:10152C005DF804FBFD4200002DE9F8433A49BFF396
:10153C005B8F0646012251E8003F41E8002000285D
:10154C00F9D1BFF35B8F33B9344935484B60CB606D
:10155C008A6002F0E0FC731E012B32D8012E07D1F9
:10156C004FF08043D3F81C3403F00303012B28D035
:10157C0003F041F9044618B92A4B1B78002B44D1CF
:10158C004FF02003EFF3118583F31188BFF36F8FB6
:10159C000124254FDFF89480DFF894904FF08042BF
:1015AC00D2F81834D2F81824D2030CD503F0030364
:1015BC00012B01D0012E06D10CB385F31188BFF39A
:1015CC006F8FBDE8F883ACB1284600F047FA4FF0B6
:1015DC008042D2F81835002BE0D139680029DDD0D3
:1015EC003B603B680123C2F81835C8F88031C9F854
:1015FC000030D3E70021212002F0F8F8E7E74FF0A4
:10160C0080430222C3F80423DBE74FF0804302221D
:10161C00C3F808230546BCE77C0200201802002012
:10162C0044020020B10700200401004000E100E06A
:10163C0008000040821C084B22F07F42C3F8402572
:10164C00D3F80425904200D17047D3F80405821CCE
:10165C0022F07F42F2E700BF00100140074B00224E
:10166C001A601B68064A074BD3F840051368C01A6A
:10167C0020F07F400344136002F0A4BA40110140F3
:10168C00800200200010014038B5104D104B002492
:10169C00C5F808451C601B680E4B4FF40032C3F8AC
:1016AC0080214FF48033C5F80433224601211120E8
:1016BC0000F0FCF8112000F0DBF8074A012313605E
:1016CC0002202B60FFF730FF204638BD0010014090
:1016DC004011014000E100E008100140F8B52D4B2D
:1016EC00B0F1FF3F08BF18460138002840DD984292
:1016FC00A8BF1846284C294AD4F804351268284E3D
:10170C009B1A13F4000F23F07F4518BF00200135FE
:10171C0028444FF480311F4DC4F80813A84294BFDD
:10172C0015185519D4F80425D4F8403500279B1A00
:10173C00376023F07F433068012B22F07F40C4F8E0
:10174C004005C4F8441304D10F2003F05AF8376055
:10175C003368144B4FF40032C3F88021D4F80405DD
:10176C002B1A23F07F43012B04D1FFF763FF0BE00F
:10177C000020BFE725F07F43C4F84035D4F80405BA
:10178C002D1A023D2B02F0D44FF48033C4F80433ED
:10179C00F8BD00BFFFFF7F00001001408002002059
:1017AC004011014000E100E04FF02002EFF3118303
:1017BC0082F31188BFF36F8F064AD2F80405064AEC
:1017CC001268801A20F07F4083F31188BFF36F8F6B
:1017DC00704700BF001001408002002010B5114C72
:1017EC00114AA2610323C4E90433104BE36122665E
:1017FC004FF480630E4A0F49236262660023102265
:10180C00E01DA3626362E3622367E3666367A2661B
:10181C0002F0BDFD0849204602F0B9FD2023A3715A
:10182C0010BD00BF84020020A74C0000AF030020B5
:10183C009F030020B04C0000B44C0000094A0A4938
:10184C0093680968D967094998674B6843F08053D6
:10185C004B60002383F31188BFF36F8F9368D86FAD
:10186C00704700BF58030020544B000000ED00E00F
:10187C0043B2002B08DB012200F01F0002FA00F03B
:10188C005B09024A42F82300704700BF00E100E008
:10189C00054B420900F01F0053F82220012303FAE4
:1018AC0000F01040704700BF00E100E043B2002B95
:1018BC00A8BF03F1604301F10101B8BF064B4FEA29
:1018CC004111ACBF03F5614300F00F00C9B2B4BFC6
:1018DC00195483F80013704714ED00E042F8203CD3
:1018EC00009B42F81C3C0A49019B42F8183C029BA5
:1018FC0042F8143C21F001014FF0807342F8043C93
:10190C0042F8081C0023203A82658367704700BFA9
:10191C00B53F00000B4A0346906890B113F1160FC7
:10192C00806E05D0A0F120029A4206D8834204D2E0
:10193C0081422CBF0021012100E00021002908BFB9
:10194C00002070475803002008B504460E46154683
:10195C0000F0F0F9084B20469C6000F007FA28468E
:10196C0086F30988002163B681F31188BFF36F8F6A
:10197C000022002302F018FB580300200E4A08B581
:10198C000E4B22F07F029A60BFF34F8FBFF36F8F25
:10199C00D3F8882022F47002C3F88820EFF3148364
:1019AC0023F0040383F3148801F030FB01F038FBBF
:1019BC0000F092F901F072FB0000000000ED00E075
:1019CC0012498A684FF038001044EFF3098C80E814
:1019DC00F01F202080F31188BFF36F8F0C4F4FF056
:1019EC0000668A6A8A603E60906F0023936780F37A
:1019FC00118804B5104600F0B9F9BDE8044002F1B5
:101A0C00380090E8F01F8CF30988704758030020C9
:101A1C0004ED00E01EF0040F0CBFEFF30880EFF3B1
:101A2C000980816911F8021C0229FFD001B502F06E
:101A3C00A3FC01BD014910220A60704710ED00E0C3
:101A4C0072B6404080F31188BFF36F8FBFF34F8F96
:101A5C0030BF62B6BFF36F8F704700BF72B649409C
:101A6C0081F3118820BF80F3118862B6704700BFE4
:101A7C0030BFFFF7FDBF00BF01B572B60B4A506A0D
:101A8C0000281EBF0021516202F0E7FD62B6EFF3A1
:101A9C000580A0F110004FEAC0000549014409C9B6
:101AAC009847BDE80140034908470000580300204F
:101ABC004C490000091B000002F0D9FC202080F3E7
:101ACC00118808484FF40261401880F30988EFF33D
:101ADC0014800221084380F31488BFF36F8FFFF743
:101AEC004DFF000040190020EFF30880EFF309814F
:101AFC0001B5724600F072F801BD00BF044B996845
:101B0C00986A884203D003494FF080520A607047AC
:101B1C005803002004ED00E038B5174B14469A6AC0
:101B2C009A6A9A6A0546900716D5586B9A6A1206F5
:101B3C0004D519B19A6A22F080029A629A6A9A6A5A
:101B4C009A6AD2060BD400200B4A936A43F0FF0327
:101B5C0093620023237038BD6FF01500EEE75B68CD
:101B6C001B05F0D52946FFF7D5FE0028EBD080F3F6
:101B7C0009880220E8E700BF00ED00E00D4B9A6AEF
:101B8C009A6A9A6A920508D59A6B9A6A120404D5D5
:101B9C0018B19A6A22F400429A62064B9A6A9A6ABF
:101BAC00D20558BF9A6A9A6A002042F47F429A6220
:101BBC000870704700ED00E0074B9A6A9A6A9A6ABF
:101BCC009A6A9A6A9A6A9A6A6FEA02426FEA1242AF
:101BDC009A620020704700BF00ED00E070B5374BF3
:101BEC005B688AB00E46C3F30803002585F31188A1
:101BFC00BFF36F8F02F07F41B1F17F4F11D102F033
:101C0C000C0108290DD0110701D40646012500222C
:101C1C00033B8DF80720032B48D8DFE803F0043F83
:101C2C00433C2E46F3E7254BDA6A92073ED4DC6A36
:101C3C0014F0804409D028331B78F3B10DF107025E
:101C4C0001213046FFF768FF04469DF8073093B931
:101C5C002022314602A802F0B7FB099B45B3C3F31F
:101C6C00080222B96FEA53236FEA4323099302A9AE
:101C7C00204602F07FFB0AB070BD114B1B782BB1D4
:101C8C000DF107010120FFF779FFDDE70D4B1888F7
:101C9C0084B2002CD9D0FFF78FFFD5E70DF10702E6
:101CAC000021CEE70DF107010020ECE70024CCE782
:101CBC0023F4FF7323F00103D8E700BF00ED00E02D
:101CCC0029ED00E02AED00E0024A536943F01003CD
:101CDC005361704700ED00E0044800232021C21836
:101CEC000133272B82F80013F9D1704700E100E093
:101CFC0008B50E4B9B68834207D1EFF3058393B174
:101D0C000B4A536843F08053536001F011FC4FF0C1
:101D1C002003EFF3118083F31188BFF36F8FBDE8BD
:101D2C00084002F0BCBC01F061FE00BF580300206B
:101D3C0000ED00E01FB5084B0193084B0293084BD4
:101D4C00039301AB0093074A074B0121684600F04F
:101D5C00A7F805B05DF804FB0000002000000000AF
:101D6C0000000B0600000020000001201FB5836E50
:101D7C00203B0193064B2022CDE90223012101AB2C
:101D8C006846009300F096F805B05DF804FB00BFC0
:101D9C0000000B15DFF884C0F0B50646002710468E
:101DAC008F4200DBF0BD56F827E0DEF8044094B318
:101DBC0043B1651E2C4219D11F2C17D9DEF8002017
:101DCC00154213D1202CC2B2DEF80050DEF8080008
:101DDC000FD9B4F1004F0ED8013CB4FA84F4C4F11D
:101DEC001F046400072A44EA000406D96FF01500AA
:101DFC00D8E70824F6E73E24F4E725F01F05154341
:101E0C0045F0100544F00104CCF80820501CCCF827
:101E1C000C50CCF810400137C2E700BF90ED00E049
:101E2C00034B05225A60BFF34F8FBFF36F8F704780
:101E3C0090ED00E0BFF35F8F014B00225A607047BA
:101E4C0090ED00E013490868082810B51ED8FFF77C
:101E5C00F1FF114C49680022904201F10C0105D1AF
:101E6C000E4B1870FFF7DCFF002010BDA26051F87C
:101E7C000C3C23F01F03134343F01003E36051F8B1
:101E8C00043C43F0010323610132E5E74FF0FF30DE
:101E9C00EBE700BFC84A000090ED00E0AF07002060
:101EAC0010B5034C01232278FFF774FF207010BD8E
:101EBC00AF07002008B5084A00231278FFF76AFF25
:101ECC0010F1160F03D0054B0022072800DD08BDCA
:101EDC0098601A610130F8E7AF07002090ED00E040
:101EEC00014B1860704700BF940000200239012993
:101EFC0002D8034B1B6818474FF0FF30704700BFE8
:101F0C00940000200FB407B504AB022153F8042B46
:101F1C0004480193FEF7BEFF03B05DF804EB04B078
:101F2C00704700BF774400004FF02003EFF311829D
:101F3C0083F31188BFF36F8F06490123C1F8403535
:101F4C004FF08041C1F8783582F31188BFF36F8F61
:101F5C000020704700E001404FF08043C0B2C3F84E
:101F6C001C05BFF34F8F0549054BCA6802F4E062AC
:101F7C001343CB60BFF34F8F00BFFDE700ED00E0D4
:101F8C000400FA0520B1034B800143F0010318470C
:101F9C00704700BF904A0000054A0123C2F8003583
:101FAC0008B1D36070471360024A1360704700BFDA
:101FBC000070004004700040087970B500F01F04F8
:101FCC00072C1FD80B78092B1CD8DFE803F006066A
:101FDC000606061B051E1B2005234A78032A18D06B
:101FEC00042A0FD100254A8844F20A06B24244D092
:101FFC0011D844F20306B2423BD044F20506B24279
:10200C0039D0D2B36FF0150032E00623E5E7072391
:10201C00E3E70125E7E744F21406B2422FD044F27D
:10202C002806B2422DD044F20F06B242EAD1032266
:10203C00C0F340101B0243EA005343EA053343EA62
:10204C000243220102F1804202F5E0420020C2F874
:10205C001835230103F1804303F5E0438A79C3F873
:10206C001425C3F81005084B1C444B7984F88830B0
:10207C0070BD0022DCE70122DAE70222D8E7042255
:10208C00D6E70522D4E700BF000000202D4B1A68CC
:10209C0010B5002A48D000221A601B682A4C2B4B22
:1020AC0001211960C3F8F824636EC3B3E36F43B125
:1020BC00B4F8842004F164019847012814D0022854
:1020CC0028D0B4F88430B4F880209A4222D9013355
:1020DC00A4F884301E4BD3F82C26D3F8341689B2CE
:1020EC0002EB4102C3F82C26A36F2BB994F87600AF
:1020FC00BDE81040FFF750BFBFF35B8F54E8003FC3
:10210C005A1E44E800210029F8D1BFF35B8F012B44
:10211C00ECDC10BDA36F13B10E4802F0BAFB0E48F5
:10212C00BDE8104001F088BB0C4B19680029F0D0B9
:10213C001A60064A1B680123136042F8083C42F8F7
:10214C00043CE6E7047100400000002008700040E9
:10215C00007000400800002050000020107100406A
:10216C00F7B50D465D484FF0FF324FF0FF3301F0ED
:10217C0083FB686810B96FF0150497E030F0FF022C
:10218C00F9D1574C574F114620FA02F313F00103C3
:10219C0032D0BB1893F888C0BCF1000FEBD004EB25
:1021AC00021E6E7CDEF81835003E18BF012623F0A7
:1021BC00807343EA0663CEF8183502F151031B0114
:1021CC00013144F803C0C9B20132082ADCD12B7C9E
:1021DC00083B062BCFD801A252F823F0CD220000E9
:1021EC00832100000F22000083210000C522000083
:1021FC0083210000C922000002F151063601A351CF
:10220C00E2E70122364B0129C3F8F0256A7C59D943
:10221C00002AB0D1C3F8F4252A684B0012B11289F8
:10222C0002FB0333EA689A4254D32D4BAA68C3F8D5
:10223C002C262F46C3F830160FCF2A4C04F1640617
:10224C000FC63B6833602A6800262666002A3CD0FD
:10225C0007CA04F1780383E807006366A4F8846076
:10226C0098B3BFF35B8F54E8003F44E80062002A48
:10227C00F9D1BFF35B8F1C48A66F1C4A4FF4004585
:10228C0000210023E5FB0601FEF7A6F90022CDE9AB
:10229C000001002304F1080001F040FD14484FF048
:1022AC00FF324FF0FF3301F0E7FA246E0B4801F0D8
:1022BC00C3FA204603B0F0BD0222A3E70322A1E734
:1022CC0000229FE7082AA5D955E794F87600FFF776
:1022DC0063FEE3E76FF00B04E8E700BF400000206B
:1022EC0000700040000000203F420F0040420F00F1
:1022FC00500000200D4B10B500241C601B680C4BCB
:10230C001C601B680B4B1222C3F804230720FFF739
:10231C00AFFA224601210720FFF7C8FA0648836C62
:10232C0013B9403001F088FA002010BD0471004050
:10233C0010710040007000400000002008B5094BEF
:10234C001A786AB90121197006200521FFF7AEFA37
:10235C000620FFF78DFA044B4FF00042C3F804231C
:10236C00002008BDB0070020006000402A4B70B56B
:10237C0046682A48134083423ED00DD8062B15D010
:10238C0005D89BB1022B39D06FF0150033E0B3F5B3
:10239C00801FF9D1012309E02148834230D0B3F5E5
:1023AC00A00F2FD0B3F5800FEED10223D00654BF6F
:1023BC00C2F34015032582F4807412F4007FC2F33B
:1023CC004020C4F3002407D012F4006F76681BD0B1
:1023DC0001228A40C6F8082540EA440201F01F0198
:1023EC0042EA032301F5E0714FF0A04243EA850372
:1023FC0042F82130002070BD0723D7E70423D5E72E
:10240C000523D3E70323D1E7520542BF01228A40BB
:10241C00C6F80C25E0E700BF0600F000060010002F
:10242C0002004000F8B50C464168C668087A04F012
:10243C001F05B2F5A03F45EA40150CD105F01F0170
:10244C0001F5E0714FF0A04050F82110CF0707D5EF
:10245C006FF02200BDE0B2F5005FF16800F0AA80D9
:10246C00F0680121A14001437069F1600121A14094
:10247C00B2F5A03FB2690CBF08438843B3F5C02F37
:10248C000CBF0A438A43B26132697061B3F5802F85
:10249C000CBF114322EA0101544A3161D2F80413F2
:1024AC000023C9B203F5A27052F82000C0F3042037
:1024BC00854240F0848021FA03F0C0077FD50121CA
:1024CC0099404B48BFF35B8FCF4350E800CF0CEAE9
:1024DC00070C40E800CEBEF1000FF6D1BFF35B8FC6
:1024EC009B0003F1804303F5C043D3F8100520F0A3
:1024FC000100C3F81005C2F808130021284601F0AA
:10250C00CFFFF368E34013F0010351D07369E3404C
:10251C0013F001025ED0B369E340DB075FBF3169A2
:10252C0021FA04F404F00104C4F10204304954BF4C
:10253C00E4B203240022012707FA02F6BFF35B8FF3
:10254C0051E8000F40EA060341E8003CBCF1000FE3
:10255C00F6D1BFF35B8FD04010F0010334D1910062
:10256C0001F1804101F5C0414032D1F8100520F451
:10257C00473020F440709200C1F810052D0292B241
:10258C00D1F8100505F4F85502F1804202F5C0426D
:10259C0045EA04450543C1F8105513601268D1F89B
:1025AC00102542F00102C1F81025104AC2F804634C
:1025BC0018460EE00120A04021EA000154E7013347
:1025CC00082B7FF46FAF98E70132082AB4D16FF073
:1025DC001200F8BD3169E14001F00101C1F10301C4
:1025EC002846C9B201F05CFF1046F2E700600040DB
:1025FC00480300202DE9F0413F4D2E68002E4ED0AF
:10260C003E4BD3E90510DA681B69014322EA01024B
:10261C004FF0A0410127D1F810455C4022EA040498
:10262C004FF0000872BB2A602B6835480023012547
:10263C001F46D0F8042305FA03F1114211D09A0079
:10264C0002F1804202F5C242116851B103F5A27148
:10265C0050F821101760C1F3042105FA01F112683A
:10266C000C430133082BE4D1DCB94EB1234CD4E933
:10267C000510E268014322EA01020125002642BB53
:10268C00BDE8F0813A4206D0002108F01F0001F0AD
:10269C0007FF22EA070208F101087F00C2E734466F
:1026AC00C3E7164B59680029DFD00D68154F002D74
:1026BC0038BF00258A68224002D04B6838469847BC
:1026CC00002DD2D02B68002B38BF002329461D4685
:1026DC00F0E715420CD02169F14001F00101C1F184
:1026EC000301C9B206F01F0001F0DAFE22EA05026E
:1026FC0001366D00C3E700BF7C6100402C03002055
:10270C0000600040E400002070B54B79012B23D110
:10271C008B79032B20D1CA7922B1012A1CD14368B1
:10272C001B79CBB10C7914B1022C15D10E240B688A
:10273C004568B3F5164F2D6862D02BD8B3F5165FEC
:10274C0061D014D8B3F5966F5FD008D8B3F5967FE7
:10275C005ED0B3F5167F5ED06FF022004FE0B3F57C
:10276C00166F5BD0B3F5965FF6D1374B3CE0B3F503
:10277C00E14F56D007D8B3F5615F54D0B3F5964FFF
:10278C00EAD1324B30E047F61226B342E4D14FF493
:10279C00000329E0B3F5613F47D013D8B3F5963F5A
:1027AC0046D009D84DF6C026B34243D0B3F5614F9D
:1027BC00D2D14FF46B0317E0B3F5E13FCCD14FF01E
:1027CC00EB7311E0B3F5612F37D008D8204EB3422C
:1027DC0036D0B3F5E12FBFD14FF0E86304E01D4EC6
:1027EC00B342B9D14FF08053C5F82435C36803C93F
:1027FC0022430433C5F86C2583E80300002070BD28
:10280C004FF41D03F0E7144BEEE74FF49E23EBE778
:10281C004FF4A033E8E74FF41C33E5E74FF41D23E6
:10282C00E2E70E4BE0E70E4BDEE74FF06C73DBE7B5
:10283C000C4BD9E74FF46503D6E74FF07063D3E741
:10284C004FF08063D0E700BF00B0130000A04E0033
:10285C0090D0030040420F000050270000C07500CC
:10286C0000F03A0000903A012DE9F041C7680646A5
:10287C00884601F0C0FFB8B9284B1B7883F00103E0
:10288C007268156893B14FF02003EFF3118483F352
:10289C001188BFF36F8F304601F091FE38BB84F383
:1028AC001188BFF36F8FEEE70123E9E7642430460C
:1028BC0001F085FE70B9012001F0A8FE013CF6D1B3
:1028CC000021212000F092FFF0E784F31188BFF380
:1028DC006F8FF5E74FF02003EFF3118483F311882A
:1028EC00BFF36F8F304601F06AFE0028EDD007F879
:1028FC000C8F01230022C5F84475C5F84835C5F87E
:10290C002021D5F82011C5F85821D5F85821AB60F5
:10291C0084F31188BFF36F8FBDE8F081B1070020FD
:10292C00F8B50022054601210220FEF7BFFF022068
:10293C00FEF79EFF6B68EE681C684FF0A043002208
:10294C004021C4F8002506203560C3F80815032182
:10295C00C3F81817C3F82027C4F80C050820C4F8CE
:10296C001405C3F81C272022C3F80825C3F8141734
:10297C00E9680523C4F808350723C4F81035043179
:10298C002846FFF7C1FE074600283CD16B689B79AF
:10299C00CBB106F10E0000F063FA1D4B984234D116
:1029AC00B07BC30003F1804303F5F83304F10C0250
:1029BC0004F59071C3F81015C3F81425154A0123BA
:1029CC008340C2F804350823C4F800350023C4F84A
:1029DC001031D4F8103106F10D03C4F8343501234D
:1029EC00C4F8383523606B689B791BB94FF480733E
:1029FC00C4F8043300230C36C4F84465C4F84835D5
:102A0C000123A360E3603846F8BD6FF00407FAE7D2
:102A1C000000AD0B00F00140044B1868421C04BFD1
:102A2C00034B1878831F58425841704730010010EF
:102A3C00E00F00F0074B1B78062B09D1064B1B68E7
:102A4C00C3F30313033B032B02D8044AD05C704737
:102A5C0000207047E00F00F0E80F00F0D94C0000A8
:102A6C00024AD2F80034002BFBD0704700E0014042
:102A7C0010B5FFF7D1FF28B1774B784A1B68C3F329
:102A8C0004231360FFF7D6FF10B1754B754A1A601B
:102A9C00FFF7C2FF28B1744B744A1B68C3F342336F
:102AAC001360FFF7C7FF20B1714AD36823F080731E
:102ABC00D360FFF7B1FF40B14FF080430022C3F861
:102ACC000C21C3F81021C3F83825FFF7B3FF10B160
:102ADC00684B03221A60FFF7ADFF40B1664B05222D
:102AEC001A6001229A6700229A603F225A60634B57
:102AFC001A68511C0BBF624B624B1A781B6802BFE1
:102B0C0008331B68C3F30313062A4DD1033B032B75
:102B1C0003D85D4AD35C002B46D04FF080525B4B00
:102B2C00D2F80414C3F82015D2F80814C3F82415ED
:102B3C00D2F80C14C3F82815D2F81014C3F82C15BD
:102B4C00D2F81414C3F83015D2F81814C3F834158D
:102B5C00D2F81C14C3F84015D2F82014C3F844154D
:102B6C00D2F82414C3F84815D2F82814C3F84C151D
:102B7C00D2F82C14C3F85015D2F83014C3F85415ED
:102B8C00D2F83414C3F86015D2F83814C3F86415AD
:102B9C00D2F83C14C3F86815D2F84014C3F86C157D
:102BAC00D2F84424C3F87025FFF736FF28B1384B10
:102BBC00384A1B6803F04F031360FFF72DFF48B131
:102BCC004FF08043D3F80024D20744BF6FF00102CA
:102BDC00C3F80024294B1B68062B0CD1294B1B680E
:102BEC00033B032B02D82C4AD35C23B12B4A13682A
:102BFC0043F4806313604FF01023D3F80022002AB3
:102C0C0003DBD3F80432002B22DA25490123C1F867
:102C1C000435FFF725FF4FF010201524C0F80042B3
:102C2C00FFF71EFFC0F80442FFF71AFF0023C1F89C
:102C3C000435FFF715FFBFF34F8F1A491A4BCA68BB
:102C4C0002F4E0621343CB60BFF34F8F00BFFDE78C
:102C5C00164B174A1A6010BD240300104035014072
:102C6C0074C007400DF0ADBA440200103C050040A2
:102C7C00F0ED00E0A00500401056004030010010BF
:102C8C00E00F00F034010010D14C000000C00040F7
:102C9C0058020010E40E0040D54C00003C170040D8
:102CAC0000E0014000ED00E00400FA05A80000205F
:102CBC000090D003044B1A7922B9012218609A8033
:102CCC0002487047024870474C0300200000AD0BCF
:102CDC000C00AD0B30B510B1012833D030BD4FF026
:102CEC008043D3F81824D3F8181411F4803F1946F4
:102CFC0024D002F00302012A20D1C3F81825164B68
:102D0C0000221A601B684FF080430222C3F8042390
:102D1C00124AD06840F08073D360114B1C6844F0A9
:102D2C00010119605D685968491BB1F50A5FFAD356
:102D3C001C600C4BD06001221A60CFE70023C1F855
:102D4C001835DCE7084B00221A601B684FF08043F3
:102D5C00C3F804031860C1E704010040F0ED00E083
:102D6C00001000E0080000400001004038B510B130
:102D7C00012818D038BD4FF080430222C3F8082335
:102D8C00184A10601268184A0121116042F210753D
:102D9C001C46D4F81834DB03ECD5012001F036FCCA
:102DAC00013DF6D1E6E7114B4FF080440022C4F808
:102DBC0008031A601B680E4B42F210751860D4F8A9
:102DCC000C34D4F80C24D20303F0010305D523B141
:102DDC00012001F01BFC013DF1D1064B00225A7180
:102DEC00C8E700BF040100400C0000400001004097
:102DFC00040000404C030020164B1A6810B56AB151
:102E0C0000221A601B684FF080430122C3F808238C
:102E1C00114B587910B95A711B6898470F4B1A68A7
:102E2C0072B100221A601B684FF08043D3F818244B
:102E3C00D3F81814920704D10122C3F818259A600C
:102E4C0010BD0222C3F80823034BBDE810401B68D9
:102E5C0001201847000100404C03002004010040F1
:102E6C002DE9F041144A154E154F0546154800241E
:102E7C004FF0010E5FFA84FC4FF02003EFF3118842
:102E8C0083F31188BFF36F8F0EFA0CF3134207D044
:102E9C0031680B4201BF1943316085F800C03846D8
:102EAC0088F31188BFF36F8FB84203D09A4304F1B3
:102EBC000104DFD1BDE8F081FFFF0F0054030020B7
:102ECC000000AD0B0200AD0BF8B5104B104F53F8D2
:102EDC002050013053F82060AE4200D8F8BDD5E93F
:102EEC0000342046984770B16CB1E41B2411610981
:102EFC00084A04F01F0452F82100012303FA04F4D9
:102F0C00044342F821400835E6E700BF404B00007F
:102F1C00B400002004010020084BC01A0011084B1B
:102F2C00420900F01F0053F82220012303FA00F09D
:102F3C0010420CBF18460020704700BFB4000020A0
:102F4C0004010020114970B5114C05460E468C4207
:102F5C0004D10F4CB4420AD1002414E02046FFF7F0
:102F6C00DBFF10B12368AB420DD01034EFE72046E5
:102F7C00FFF7D2FF08B91034ECE72168284601F0BE
:102F8C0017FA0028F7D1204670BD00BF04010020BD
:102F9C00B4000020F8B51C4E054600274FF0200267
:102FAC00EFF3118382F31188BFF36F8F286988B117
:102FBC002F6183F31188BFF36F8F00F0B9FA4FF0D4
:102FCC002003EFF3118083F31188BFF36F8F01F0AF
:102FDC0066FBE3E783F31188BFF36F8F4FF020029A
:102FEC00EFF3118382F31188BFF36F8F01F023FC91
:102FFC00012102280446D8BF084601F02CFC74625B
:10300C00FEF71EFDCAE700BF580300200248034A22
:10301C000021121A01F003BA08010020B4070020A5
:10302C0008B50648064A0749121A01F0CDF9BDE861
:10303C000840054A0549064801F0C6B900000020C1
:10304C0008010020284D000000000000284D000061
:10305C000000002008B50C4B012202201A70FFF76B
:10306C0033FF0A4A0A490B4800F0E6FE0320FFF73B
:10307C002BFF00F05DFCFDF729FC074A137B23F0C6
:10308C000103137308BD00BFB1070020C24B000041
:10309C00DD4C0000FC4C0000880100202DE980482C
:1030AC00DFF8F490A7B089F30888334D334E6B6981
:1030BC00DFF8E8A0324F43F4007300246B61E02387
:1030CC0085F82230EC772C766C76AC766B6A43F410
:1030DC00E0236B62FEF7F8FDFEF7ACFC4FF0FF331C
:1030EC00AB62EB62274D40F20113ADF8243006AB16
:1030FC00AB602046CDE92044FFF7E6FE0120FFF748
:10310C00E3FE4FF0010B00F017FB1F4BAE621F49A3
:10311C0005934FF480525346CDE9034BCDE901445E
:10312C000094304600F0D2FB737B804623F00403FE
:10313C003046737301F0DFFA0F23CDE902431449D3
:10314C00144B4FF4A072CDE904B4CDE900543846C9
:10315C0000F0BCFB7B7BEF6023F004037B7305F179
:10316C001C03C5E907332C76C5F80490524641463A
:10317C003046FEF7E9FB00BF00ED00E088010020BF
:10318C000801002058030020234D0000C007002038
:10319C00E0170020A12F000060210020613000000A
:1031AC0010B5084C23685BB1FEF7FEFA03462068A5
:1031BC00054A0344BDE810405361002101F04BBBAC
:1031CC0010BD00BF9403002058030020F8B505463D
:1031DC000C464FF02003EFF3118683F31188BFF3F5
:1031EC006F8F0D4B00224FF4004740F2E730002167
:1031FC005A61E7FB05014FF47A720023FDF7ECF9F5
:10320C00064B1860064B1C60FFF7CAFF86F311884B
:10321C00BFF36F8FF8BD00BF58030020940300204C
:10322C009003002049B9EFF3058030B9054B9A6A39
:10323C009B689A4201D0FEF701BB81F31188BFF362
:10324C006F8F7047580300204FF02003EFF311816C
:10325C0083F31188BFF36F8F044B9A68D37B013BC8
:10326C00D37381F31188BFF36F8F7047580300201D
:10327C00094B03F12C02824205D19B688B4202D18F
:10328C004B7BDB0606D1D1E9003213605A60002378
:10329C00C1E90033704700BF5803002038B5124C09
:1032AC002369A26801460BB1E5680CE004F12C001F
:1032BC0001F017FA537B0546980644BF43F0080308
:1032CC005373002DF0D049B9537BDB0606D1AB69A3
:1032DC0023B9D3897F2B01D9A26238BD954201D085
:1032EC00FFF75EFFA562F8E75803002010B54FF01A
:1032FC002003EFF3118483F31188BFF36F8F084B16
:10330C009A68D37B0133D3730020FFF7C7FF84F394
:10331C001188BFF36F8FBDE8104001F0CCB900BF2E
:10332C005803002070B490F90D20437B002A2CDB4D
:10333C00DB062AD1836943BB154A114651F82C4F41
:10334C008C4218BF2346002B146B38BF0023B3B13B
:10335C0090F90E6093F90E50AE4203DBA3420ED0EF
:10336C001B68F4E75A68C0E9003210605860437B70
:10337C0063F07F03437370BC0020FFF78FBFC0E97D
:10338C000014136B18601063F1E770BC704700BF3A
:10339C005803002010B54FF02002EFF3118482F394
:1033AC001188BFF36F8F427B510704D484F31188CB
:1033BC00BFF36F8F10BD22F004024273FFF7B2FF10
:1033CC0021460248BDE81040FFF72CBFB207002091
:1033DC0070B590F90D30002B014602DA1748FFF753
:1033EC0047FF174A1046146B50F82C3F834208BF16
:1033FC000023002B38BF0023D3B191F90E6093F951
:10340C000E50AE4203DBA34212D01B68F4E758689F
:10341C00C1E90030016059604B7B906863F07F0319
:10342C004B73431A5842BDE870405841FFF736BF02
:10343C00C1E90004136B19601163EDE784030020EC
:10344C005803002070B501464FF02003EFF31184B0
:10345C0083F31188BFF36F8F164B174A9868156862
:10346C00A8421D4606D1FFF79BFE84F31188BFF3DB
:10347C006F8F70BD00261660104A1268BAB1C289EF
:10348C007F2A14D8427BD20611D10D4A90F90E60D6
:10349C00126896420BDB0B4A904208D05A698A425A
:1034AC0002DCFFF795FFDEE7521A5A61DDE70023D5
:1034BC006B61DAE7580300208C0300209403002092
:1034CC00900300200801002070B50446183001F06C
:1034DC009CF94FF02003EFF3118683F31188BFF3AF
:1034EC006F8F94F90D30002B07DA0F482146FFF748
:1034FC00BFFE637B03F07F0363730C4D637BA86893
:10350C0043F010036373031B58425841FFF7C6FE88
:10351C0086F31188BFF36F8FAB68A34203D1BDE86C
:10352C00704001F0C8B870BD84030020580300201F
:10353C002DE9F04104464FF02003EFF3118283F3A1
:10354C001188BFF36F8F437B13F0280F05D082F3E4
:10355C001188BFF36F8FBDE8F08143F020034373F4
:10356C0082F31188BFF36F8F183001F04EF94FF0D2
:10357C002003EFF3118683F31188BFF36F8F637B06
:10358C00D80616D1A269A2B9190607D52648214634
:10359C00FFF76EFE637B03F07F036373234B986826
:1035AC00021B50425041FFF779FE04F1300800270E
:1035BC001DE09B07F9D5A0682146FFF759FE637BF8
:1035CC0023F0020363730023A360EEE705F11800F8
:1035DC0001F01BF9A8682946FFF74AFE6B7BAF6028
:1035EC0023F002036B73EF672846FFF79BFE256BF6
:1035FC00454501D0002DE9D10C4B9A680C4B9A42F1
:10360C0002D10120FFF74AFE637B43F0080363738A
:10361C00236E86F31188BFF36F8F002B9BD020464F
:10362C00BDE8F041184700BF840300205803002078
:10363C000801002008B590F90D30002B014606DA80
:10364C000748FFF715FE4B7B03F07F034B73054BCD
:10365C009868431A58425841BDE80840FFF71EBE0F
:10366C0084030020580300202DE9F041064614463F
:10367C001D464FF02003EFF3118783F31188BFF33E
:10368C006F8F01F068F887F31188BFF36F8F6B1C95
:10369C0008BFB4F1FF3F08D022462B4606F11800B4
:1036AC000349BDE8F04100F005BABDE8F08100BF68
:1036BC002347000010B5074B9868074B0C46186061
:1036CC001146DDE90223FFF7CFFF2046BDE810408D
:1036DC00FEF7B4B8580300208C030020F8B505465B
:1036EC0001F0D3F82C184FF02003EFF3118783F37C
:1036FC001188BFF36F8F0D4E0D4BB0681860FFF73C
:10370C0099FFB0680B492A46EB17183000F0D2F934
:10371C00B268537B43F0100353733846FEF78EF8B0
:10372C0001F0B3F8201A20EAE070F8BD580300202D
:10373C008C03002023470000044B002103F12C02D2
:10374C00C3E90B220846FFF741BD00BF5803002018
:10375C00F8B5244C244BA2689A4230D04FF0200389
:10376C00EFF3118583F31188BFF36F8FA16804F118
:10377C002C00FFF77DFDE36AA268216B834208BF32
:10378C000023002B38BF00232BB392F90E7093F952
:10379C000E60B74203DB8B421DD01B68F4E75968FF
:1037AC00C2E900310A605A60537B63F07F035373A4
:1037BC000120FFF773FD85F31188BFF36F8F4FF076
:1037CC002003EFF3118083F31188BFF36F8FBDE8F3
:1037DC00F840FEF733B8C2E90001236B1A6022638C
:1037EC00E2E700BF58030020080100200B4601331C
:1037FC0008BFB0F1FF3F10B506D10B4B9868FFF72F
:10380C0063FE4FF0FF3010BD044648B9FFF7A0FF30
:10381C004FF47A7084FB0034D80B40EA4440F2E752
:10382C00FFF75CFF0446F3E758030020014B986850
:10383C00704700BF5803002038B504464FF02003F2
:10384C00EFF3118583F31188BFF36F8F00F0AEFF98
:10385C0048B10022C26700F04EFF29460548BDE87A
:10386C003840FFF7DFBCD4E902329A4218BF01336B
:10387C00A360F2E7B207002037B514461D464FF09F
:10388C002003EFF3118183F31188BFF36F8F8368EB
:10389C0043B1013B836081F31188BFF36F8F00202C
:1038AC0003B030BD54EA050306D181F31188BFF390
:1038BC006F8F6FF00F00F3E70246CDE90045024829
:1038CC00FFF7F8FEECE700BFB20700202DE9FF413F
:1038DC0000F13005C0E90C550E9D057304254573A8
:1038EC000F460D9D8573D61D00250C9AC57326F0C9
:1038FC0007062037C0E90655C0E91A76056706F1B8
:10390C00200802920B9A019288440A9A009242462D
:10391C000446FDF7E3FF054B9B68C4E9175503B15B
:10392C005B6F6367404604B0BDE8F081580300202C
:10393C002DE9F0472A4E2B4D86B0B046B54205F125
:10394C00300410D3FFF780FC264CDFF89CA04FF41A
:10395C00004940F2E7360027444521D306B0BDE8C4
:10396C00F047FFF7C3BC54F8043C059354F8103CE3
:10397C00049354F8143C039354F8183C029354F8F1
:10398C001C3C019354F8203C009354E90A2354E95D
:10399C000C01FFF79BFF54F8303CDD652546CDE765
:1039AC00636A5A1C0DD023EAE37330463946C9FBCF
:1039BC000301B94208BFB042256804D12846FFF77D
:1039CC00E9FC3034C8E74FF47A720023FCF704FEAC
:1039DC0002460B4605F11800514600F06BF8F0E773
:1039EC0008010020080100202347000008B54FF013
:1039FC002003EFF3118483F31188BFF36F8F044B13
:103A0C0098681861FFF760FD2046FDF717FF00BFAF
:103A1C0058030020034B1B680BB9FDF7C5BE0020F3
:103A2C00704700BF9803002030B5036868B10A4A9C
:103A3C005268904209D043B1D3E90421D0E904453E
:103A4C00121945EB0101C3E90421426813605A6065
:103A5C000023C0E9003330BDAC00002038B5134B57
:103A6C001C689C4208BF0024FFF7D4FF0546BCB17C
:103A7C00D4E90401401B61EBE571012871F10003ED
:103A8C0011DB6FF000420023824273EB010400DA79
:103A9C001046074B5B6913B19842A8BF184638BD56
:103AAC006FF00040F5E70020F3E700BFAC0000200A
:103ABC00580300202DE9F74F019119464B1C08BF04
:103ACC00B2F1FF3F82466CD0541C6FF0010341F100
:103ADC0000054FF0FF3BB3EB04086BEB0509B8F1A5
:103AEC00000F79F100030FDBFFF794FF334AD2E9A3
:103AFC00001C6FF001035B1A6BEB0C021E1B62EBDC
:103B0C000507341A67EBE075019BCAF808304FF0D3
:103B1C002003EFF3118683F31188BFF36F8FFFF748
:103B2C0079FF012C75F10003254BB8BF01241A68ED
:103B3C00B8BF0025241845EBE0759A42CAE9044544
:103B4C0001D05F6852B95A68CAF804205A68CAF89A
:103B5C000030C2F800A0C3F804A014E0D2E9048934
:103B6C00DAE90445444575EB09011DDAB8EB0400AC
:103B7C0069EB0501C2E904015168CAE90021C1F8E9
:103B8C0000A0C2F804A01A689A4206D0924504D14B
:103B9C00FFF764FF0021FDF7A1FD86F31188BFF349
:103BAC006F8F03B0BDE8F08FB4EB080065EB090133
:103BBC00BA42CAE90401C6D01268C3E70802002061
:103BCC00AC0000202DE9F74F0646FFF73BFC4FF009
:103BDC002003EFF3118483F31188BFF36F8F2C4D07
:103BEC00DFF8B0A0DFF8B0B02E605146D5F800C0B9
:103BFC00DBF800006246D3175845DAE90089CDE9B5
:103C0C0000230DD060B1D0E90467B445BB411EDA86
:103C1C00009BB6EB030C019B67EB0306C0E904C6E3
:103C2C00009B13EB0802019B4FF0000643EB0903CA
:103C3C00C1E900232E60FFF711FF3146FDF74EFD61
:103C4C0084F31188BFF36F8F03B0BDE8F08F18EBCE
:103C5C0006084FF000024FF0000349EBE679C0E98B
:103C6C000423ACEB0606CAE900892E60FFF7DCFEE4
:103C7C0084F31188BFF36F8F836898474FF020034C
:103C8C00EFF3118483F31188BFF36F8F0149ADE714
:103C9C009803002008020020AC00002010B54FF063
:103CAC002003EFF3118483F31188BFF36F8FFDF7BB
:103CBC007BFD064BD3E90023121843F1000384F378
:103CCC001188BFF36F8F1046194610BD08020020F3
:103CDC00F8B5D0E90A23561C43F10007002F08BFA2
:103CEC00022E044602D30C49FFF7E4FE236B01338A
:103CFC002363236A0BB12046984754F8185FA542FA
:103D0C0008D03DB1284600F0BAFC284600F0F3FC80
:103D1C000023EB67F8BD00BFDD3C00002DE9734FBD
:103D2C00194606464C1C104608BFB0F1FF3FDDE9B2
:103D3C000A238046894647D014461D4654EA05039B
:103D4C0016D06FF00103B3EB020A4FF0FF3363EBB5
:103D5C00050BBAF1000F7BF1000309DA12F1FF3405
:103D6C0045F1FF35012C75F10003BCBF0124002582
:103D7C006FF001031B1A00934FF0FF3363EB010349
:103D8C000193DDE90023002A73F100030CDA10F132
:103D9C00FF3841F1FF39B8F1000F79F10003BCBFD6
:103DAC004FF000084FF00009304600F02EFD0023C4
:103DBC000749336342464B463046C6E90A4502B0D2
:103DCC00BDE8704FFFF776BE02B0BDE8708F00BF44
:103DDC00DD3C000038B5064C064DAC4201D300204A
:103DEC0038BDD4E90112204600F075FD1434F4E717
:103DFC000801002008010020034658B1426802F077
:103E0C000302012A03D0032A04D1026812B1002054
:103E1C00986070476FF0150070474268816002F03F
:103E2C000302032A4FF0000203460CBF0068104641
:103E3C005A607047002070470FB407B504A951F8B9
:103E4C00040B0191FCF7DAFD03B05DF804EB04B050
:103E5C007047038B13F0070305D10368002B0CBFCD
:103E6C00002003207047022B05D1438B002B14BF7D
:103E7C00002004207047012B05D10368002B0CBFD8
:103E8C00002005207047002070472DE9F0410D46B9
:103E9C0007461946281D90461E46FFF7BEFF0446EE
:103EAC0038B13346424629463846A446BDE8F0416F
:103EBC006047BDE8F08110B44FF02004EFF311829D
:103ECC0084F31188BFF36F8F416110BC0121FCF7A3
:103EDC00A3BD10B50C4640B139B1081DFFF78CFFDE
:103EEC0028B9A36833F0030301D06FF0150010BD9F
:103EFC0038B50C46054658B151B10B6843B14B6807
:103F0C0033B11C22002100F08AFA2C61002038BD4C
:103F1C006FF01500FBE770B504460E46FFF7D9FFAE
:103F2C00051E31DB4FF02003EFF3118183F3118871
:103F3C00BFF36F8F638B208B4FF6FF75AB4200F096
:103F4C0007022ED0022A0ED10133638315460123BA
:103F5C0081F31188BFF36F8FB3B100233146204634
:103F6C00FFF793FF10E0830701D0062A0ED1002340
:103F7C003360636893B9C4E90066154662B90A46B2
:103F8C0020460221FCF748FD284670BD052A0CBFCF
:103F9C006FF022056FF004050023D9E71E60666000
:103FAC00EBE76FF00A05F7E7044608B5084611463B
:103FBC001A46A047FFF73AFCFDF79AFE836800EB20
:103FCC00C101B3F5004F2CBF51F8220031F812009B
:103FDC00704700EBC1018068B0F5004F2CBF41F871
:103FEC00223021F81230704708B50122FFF7E6FFA6
:103FFC00400808BD8368B3F5004F00EBC10108D33E
:10400C004B681AB143F001034B60704723F0010376
:10401C00FAE74B881AB143F001034B80704723F049
:10402C000103FAE753000122FFF7D3BF8068013187
:10403C00B0F5004F2CBF02200120081AB0FA80F016
:10404C00C0F11F0070472DE9F04104460D46FFF703
:10405C00CBFFA368B3F5004F014601D3012835D03F
:10406C002046FFF7E3FF04EB800216699EB901239B
:10407C0003FA00F0E3680343E360294615612B461D
:10408C0002222046FFF7A5FF032229462046BDE861
:10409C00F041FFF79EBF022231462046FFF78EFF0C
:1040AC0002220346074629462046FFF792FF334675
:1040BC00032229462046FFF78CFF032239462B4664
:1040CC002046FFF786FF02223146DFE7BDE8F0818C
:1040DC00B2F5802FF8B52CBF08250425551BCC1D37
:1040EC000D4424F0070425F00705002200232D1BA6
:1040FC000460ED08C4E9002300232946A560E360B1
:10410C002046FFF793FF86001B36411CF60804F18E
:10411C00100218468B4229DB324620460021FFF75D
:10412C0081FFAF1B204601220021FFF763FF3A46B7
:10413C003146FFF777FF3346314620460022FFF722
:10414C0048FF294620460022FFF76CFF3B462946D4
:10415C0020460022FFF73DFF294620460122FFF7AB
:10416C0049FF3146BDE8F840FFF76DBF42F8040B3C
:10417C000133CFE72DE9F74F9946D37814466F2BCF
:10418C00A3F1410206460F4601922DD028D8582B98
:10419C0014BF0A251025DDF83080AA464FF0000B1D
:1041AC0052465B4630463946FCF716FA092AD3B21A
:1041BC001FD830335F45DBB208BF564508F8013DC8
:1041CC0001D3C84512D823789B0605D5082D16D1E6
:1041DC00A37843F00803A370404603B0BDE8F08F0A
:1041EC0003F0F703702BD3E70825D4E706460F46F8
:1041FC00D6E7019A192A94BF37335733DAE7102DD3
:10420C00EAD1A37843F01003E5E72DE9F041074626
:10421C00884615461E461446B442A4EB050002D34C
:10422C003EB923782BB114F8010B4146B84700284E
:10423C00F2DABDE8F0817047C268CBB20C2103FB07
:10424C000121086C00F0070070474FF02003EFF3DA
:10425C00118283F31188BFF36F8F036813F0C003CF
:10426C0001D08B4207D101230360002082F3118817
:10427C00BFF36F8F70474FF0FF30F7E710B54FF07B
:10428C002003EFF3118283F31188BFF36F8F036860
:10429C0003F00704012C06D10160002082F3118881
:1042AC00BFF36F8F10BD03F0C0038B4214BF4FF0F0
:1042BC00FF306FF04400F1E74FF02003EFF3118271
:1042CC0083F31188BFF36F8F036803F0C00343F0CF
:1042DC000203036082F31188BFF36F8F7047C068CD
:1042EC0010B4CBB21C2403FB0400002110BC1047FB
:1042FC001046FFF7A1BA0020FEF738BD38B5CCB296
:10430C000C2305466343C068403380211844FFF7F3
:10431C009CFF002805DB696801EBC40463689847BF
:10432C00002038BD2DE9F843CDB20C27C4686F438B
:10433C00064607F140008021204490469946FFF73D
:10434C009DFF002807DB3C44C4E90E89736853F8D1
:10435C00353098470020BDE8F88370477047FDF76B
:10436C003DBA08B5FFF7FBFF002008BD0021012076
:10437C0000F000B800F056B90146006800F052B9E0
:10438C0008B5FDF775FBBDE80840FDF7B7BB013973
:10439C00034611F8012F0AB91A70704703F8012B64
:1043AC00F7E7034600201A5C02B970470130FAE7C0
:1043BC00431E013913F8012F11F8010F824201D16C
:1043CC00002AF7D1101A7047F0B581EA0004A5074E
:1043DC0003460BD0013B0A4491421BD1F0BD002A8D
:1043EC00FCD011F8014B03F8014B013A9C07F6D1B4
:1043FC0022F003041D1F96080F19B94205D16FF066
:10440C00030505FB06222344E4E751F804CB45F8E9
:10441C0004CFF2E711F8014B03F8014FDCE770B55C
:10442C00C9B203469C0711D141EA012422F00306CC
:10443C0044EA04451E449408B3420DD16FF00305C1
:10444C0005FB04221A44934209D170BD002AFCD00A
:10445C0003F8011B013AE5E743F8045BECE703F8CA
:10446C00011BF0E74FF0FF307047FDF73FBDFEF743
:10447C00FFBAA0F10803BFF35B8F53E8002F511C68
:10448C0043E8001CBCF1000FF7D1BFF35B8F1AB9E6
:10449C0090F86E00FDF780BD6FF00F0383657047D9
:1044AC0000F01F00800000F1A040D0F8003723F48A
:1044BC00403343EA0143C0F80037704743685B68F8
:1044CC00D3F810350B600020704743685B68D3F855
:1044DC00040542400A404240C3F8042500207047BE
:1044EC0043685B680020C3F80815704743685B6835
:1044FC000020C3F80C15704743685A68D2F804358D
:10450C004B40C2F8043500207047C368586830B57A
:10451C0058B10024814213D108685CB99C6858607A
:10452C00A14200D198600020086072B9002030BD13
:10453C002846EFE720609868814208BF9C60F2E74C
:10454C0005680446002DF3D13AB15A680A609868A0
:10455C0059600028EAD19960E9E76FF01500E6E7A9
:10456C0043681B68D3F80423D20518D5D3F820214F
:10457C00AAB14FF02001EFF3118281F31188BFF340
:10458C006F8FD3F8201131B10021C3F82011D3F86B
:10459C0020110121D96082F31188BFF36F8F70470E
:1045AC00C2680B46D2E9010183E803000020704782
:1045BC0043681B68D3F88004C3F8800470474268D2
:1045CC001368D3F8580138B9927932B9D3F820016D
:1045DC00003818BF01207047012070474368C2683B
:1045EC001B68D3F8100148B1527B0A700020C3F845
:1045FC001001D3F8102101221A6070474FF0FF30E0
:10460C00704708B50020FDF7A7FC004700F0F9B88B
:10461C0008B50020FDF73CF918B9BDE80840FDF7D6
:10462C0027B908BDF8B505460E464FF02003EFF349
:10463C00118783F31188BFF36F8FFFF7F7F83146BB
:10464C0004462846FFF7DDFF87F31188BFF36F8F11
:10465C002046BDE8F840FDF74BBBFFF77FBE10B519
:10466C004FF02003EFF3118483F31188BFF36F8FA6
:10467C0000F037F884F31188BFF36F8F10BD10B5BD
:10468C004FF02003EFF3118483F31188BFF36F8F86
:10469C0000F01BF884F31188BFF36F8F10BD034635
:1046AC0020B9EFF305820AB9FDF7C8B883F3118876
:1046BC00BFF36F8F70474FF02003EFF3118083F33C
:1046CC001188BFF36F8FFFF7EABF014608B580680A
:1046DC00FEF7CEFD4B7B23F002034B7300238B6064
:1046EC0008BD03460068834203D0002838BF002071
:1046FC0070470020704710B54FF02003EFF3118482
:10470C0083F31188BFF36F8FFEF70CFE84F31188CF
:10471C00BFF36F8F10BD70B504464FF02003EFF35D
:10472C00118683F31188BFF36F8F50F8103CA0F102
:10473C00180513B12846FFF7C8FF14F80B3C23F0FB
:10474C00140304F80B3C2846FEF7ECFD86F31188A5
:10475C00BFF36F8F70BD38B504460D46FEF76AFF88
:10476C00637B43F002036373C5B12B68A5609D4264
:10477C0008BF0023002B38BF002383B194F90E101F
:10478C0093F90E20914204DB6A689A4207D01B68A9
:10479C00F3E75A68C4E9003214605C6038BD6B689A
:1047AC0063606B6825601C606C60F7E738B54FF090
:1047BC002003EFF3118283F31188BFF36F8FFFF7A0
:1047CC0090FF044682F31188BFF36F8F88B14FF0CE
:1047DC002003EFF3118583F31188BFF36F8FFFF77D
:1047EC0074FF85F31188BFF36F8F04F1180000F08C
:1047FC000CF8204638BDEFF30580003818BF0120B7
:10480C00704708B1FDF7BEBB704710B54FF02002E2
:10481C00EFF3118482F31188BFF36F8F03683BB100
:10482C00FFF702F9002084F31188BFF36F8F10BDDE
:10483C006FF01500F7E710B54FF02003EFF311847C
:10484C0083F31188BFF36F8FFFF708F984F3118896
:10485C00BFF36F8F10BD70B504460D464FF02003AB
:10486C00EFF3118683F31188BFF36F8FFFF7F6F820
:10487C00012805DDA04203DD29462046FCF72EFF6A
:10488C0086F31188BFF36F8F70BD08B5FFF706FA7A
:10489C0008BD10B50446FFF7B8FFD8B9636A0BB171
:1048AC002046984704F118000021FFF7D8FE044673
:1048BC0080B1FFF7E4FE2046FFF71DFF4FF0200309
:1048CC00EFF3118083F31188BFF36F8FBDE81040B5
:1048DC00FFF7E5BE10BD10B400F10C04C0E90344B1
:0848EC0010BCFFF7F5BB70479B
:0848F40020BDFF7F0100000060
:1048FC00351F0000000000006F43000000000000A6
:10490C00E13D000000000000511E0000000000000E
:10491C009D130000B40000202D290000C4000020CD
:10492C00A91200000000000095160000D400002021
:10493C0049230000E400002001230000F4000020C3
:10494C00052E00001746000000000000794300000F
:10495C00C40000206D4500000000000079430000F9
:10496C0000000000794300000000000079430000C3
:10497C000000000001260000F40000209920000037
:10498C0000000000794300000000000079430000A3
:10499C000000000079430000000000007943000093
:1049AC000000000079430000000000007943000083
:1049BC000000000079430000000000007943000073
:1049CC0000000000794300000000000069160000A0
:1049DC000000000079430000000000007943000053
:1049EC000000000079430000000000007943000043
:1049FC000000000079430000000000007943000033
:104A0C000000000079430000000000007943000022
:104A1C000000000079430000000000007943000012
:104A2C000000000079430000000000007943000002
:104A3C0000000000794300000000000079430000F2
:104A4C0000000000794300000000000079430000E2
:104A5C0000000000794300000000000079430000D2
:104A6C0000000000794300000000000079430000C2
:084A7C00000000007943000076
:0C4A8400FFFFFFFFFFFFFFFFFFFFFFFF32
:104A90000338FDD8704700000115000009430000ED
:104AA0003143000000000000454200004D140000AA
:104AB000D5140000B11400000343000045130000AA
:104AC000FD1200000000000002000000D04A0000BB
:104AD00000000000BB4C0000240002070000002082
:104AE000C34C00001E000B11C51F00006D2100000B
:104AF0005802000079230000C9440000D744000098
:104B0000ED440000F9440000054500003124000098
:104B10001745000000000000FFFFFFFF00000050ED
:104B200000000000E945000075280000BD450000B8
:104B300015270000AD4500000020004006000100E0
:104B4000FC480000344900003C4900004C4900008A
:104B50004C490000F5FFFFFF00040A400708000071
:104B60006E726639312073616164632073616D70A8
:104B70006C696E672041494E30202850302E313309
:104B8000290A004578616D706C65207265717569E0
:104B9000726573207365637572655F626F6F7420F1
:104BA000746F20686176652000534141444320734F
:104BB000657420746F206E6F6E2D736563757265FA
:104BC000210A004966206E6F743B2042757346616E
:104BD000756C742F55736167654661756C742077C9
:104BE000696C6C20626520747269676765726564C0
:104BF0000A004144435F30006465766963655F671E
:104C000065745F62696E64696E67204144435F301A
:104C1000206661696C65640A004572726F72206972
:104C20006E206164632073657475703A2025640A90
:104C3000004144432072656164206572723A202508
:104C4000640A00414443207261772076616C756587
:104C50003A2025640A004D6561737572656420769B
:104C60006F6C746167653A202569206D560A0045AE
:104C700072726F7220696E206164632073616D705F
:104C80006C696E673A2025640A00286E696C2900F9
:104C9000554152545F3000434C4F434B007379737E
:104CA0005F636C6F636B005465726D696E616C005D
:104CB0005254540053454747455200464C415348CF
:104CC0005F30005352414D5F30004750494F5F30D5
:104CD0000000000101000000010100000076322EFA
:104CE000342E302D6E6373312D313731302D6735D1
:104CF0006137623465623731303437002A2A2A201E
:104D0000426F6F74696E67205A6570687972204FC0
:104D100053206275696C64202573202573202A2A2C
:084D20002A0A006D61696E00B2
:104D2800000000000000000000000000000000007B
:104D3800DD3C000000000000000000000000000052
:104D480020000020200000207F4400000000000018
:104D5800000000000000000000000000000000004B
:104D6800400000204000002000000000010000007A
:104D7800500000205000002000000000010000004A
:104D8800000000000000000000000000000000001B
:104D9800000000000000000000000000000000000B
:104DA80000000000000000000000000000000000FB
:104DB800413E0000714400000000000000C20100F4
:104DC80000010300000000000090D003AC000020A8
:044DD800AC0000200B
:104DDC00974C0000AC4A0000984A000028020020C2
:104DEC00904C0000384B0000244B00009800002031
:104DFC009D4C0000000000000000000000000000BE
:104E0C00CA4C0000184B0000F44A00002C03002090
:104E1C00F24B000000000000E84A00000000000017
:044E2C000000000082
:0400000300001AC51A
:00000001FF
